{
  "_format": "hh-sol-artifact-1",
  "contractName": "MyEpicGame",
  "sourceName": "contracts/MyEpicGame.sol",
  "abi": [
    {
      "inputs": [
        {
          "internalType": "string[]",
          "name": "characterNames",
          "type": "string[]"
        },
        {
          "internalType": "string[]",
          "name": "characterImageURIs",
          "type": "string[]"
        },
        {
          "internalType": "uint256[]",
          "name": "characterHp",
          "type": "uint256[]"
        },
        {
          "internalType": "uint256[]",
          "name": "characterAttackDmg",
          "type": "uint256[]"
        },
        {
          "internalType": "string",
          "name": "bossName",
          "type": "string"
        },
        {
          "internalType": "string",
          "name": "bossImageURI",
          "type": "string"
        },
        {
          "internalType": "uint256",
          "name": "bossHp",
          "type": "uint256"
        },
        {
          "internalType": "uint256",
          "name": "bossAttackDamage",
          "type": "uint256"
        }
      ],
      "stateMutability": "nonpayable",
      "type": "constructor"
    },
    {
      "anonymous": false,
      "inputs": [
        {
          "indexed": true,
          "internalType": "address",
          "name": "owner",
          "type": "address"
        },
        {
          "indexed": true,
          "internalType": "address",
          "name": "approved",
          "type": "address"
        },
        {
          "indexed": true,
          "internalType": "uint256",
          "name": "tokenId",
          "type": "uint256"
        }
      ],
      "name": "Approval",
      "type": "event"
    },
    {
      "anonymous": false,
      "inputs": [
        {
          "indexed": true,
          "internalType": "address",
          "name": "owner",
          "type": "address"
        },
        {
          "indexed": true,
          "internalType": "address",
          "name": "operator",
          "type": "address"
        },
        {
          "indexed": false,
          "internalType": "bool",
          "name": "approved",
          "type": "bool"
        }
      ],
      "name": "ApprovalForAll",
      "type": "event"
    },
    {
      "anonymous": false,
      "inputs": [
        {
          "indexed": false,
          "internalType": "uint256",
          "name": "newBossHp",
          "type": "uint256"
        },
        {
          "indexed": false,
          "internalType": "uint256",
          "name": "newPlayerHp",
          "type": "uint256"
        }
      ],
      "name": "AttackComplete",
      "type": "event"
    },
    {
      "anonymous": false,
      "inputs": [
        {
          "indexed": false,
          "internalType": "address",
          "name": "sender",
          "type": "address"
        },
        {
          "indexed": false,
          "internalType": "uint256",
          "name": "tokenId",
          "type": "uint256"
        },
        {
          "indexed": false,
          "internalType": "uint256",
          "name": "characterIndex",
          "type": "uint256"
        }
      ],
      "name": "CharacterNFTMinted",
      "type": "event"
    },
    {
      "anonymous": false,
      "inputs": [
        {
          "indexed": true,
          "internalType": "address",
          "name": "previousOwner",
          "type": "address"
        },
        {
          "indexed": true,
          "internalType": "address",
          "name": "newOwner",
          "type": "address"
        }
      ],
      "name": "OwnershipTransferred",
      "type": "event"
    },
    {
      "anonymous": false,
      "inputs": [
        {
          "indexed": true,
          "internalType": "address",
          "name": "from",
          "type": "address"
        },
        {
          "indexed": true,
          "internalType": "address",
          "name": "to",
          "type": "address"
        },
        {
          "indexed": true,
          "internalType": "uint256",
          "name": "tokenId",
          "type": "uint256"
        }
      ],
      "name": "Transfer",
      "type": "event"
    },
    {
      "inputs": [
        {
          "internalType": "address",
          "name": "to",
          "type": "address"
        },
        {
          "internalType": "uint256",
          "name": "tokenId",
          "type": "uint256"
        }
      ],
      "name": "approve",
      "outputs": [],
      "stateMutability": "nonpayable",
      "type": "function"
    },
    {
      "inputs": [],
      "name": "attackBoss",
      "outputs": [],
      "stateMutability": "nonpayable",
      "type": "function"
    },
    {
      "inputs": [
        {
          "internalType": "address",
          "name": "owner",
          "type": "address"
        }
      ],
      "name": "balanceOf",
      "outputs": [
        {
          "internalType": "uint256",
          "name": "",
          "type": "uint256"
        }
      ],
      "stateMutability": "view",
      "type": "function"
    },
    {
      "inputs": [],
      "name": "bigBoss",
      "outputs": [
        {
          "internalType": "string",
          "name": "name",
          "type": "string"
        },
        {
          "internalType": "string",
          "name": "imageURI",
          "type": "string"
        },
        {
          "internalType": "uint256",
          "name": "hp",
          "type": "uint256"
        },
        {
          "internalType": "uint256",
          "name": "maxHp",
          "type": "uint256"
        },
        {
          "internalType": "uint256",
          "name": "attackDamage",
          "type": "uint256"
        }
      ],
      "stateMutability": "view",
      "type": "function"
    },
    {
      "inputs": [],
      "name": "checkIfUserHasNFT",
      "outputs": [
        {
          "components": [
            {
              "internalType": "uint256",
              "name": "characterIndex",
              "type": "uint256"
            },
            {
              "internalType": "string",
              "name": "name",
              "type": "string"
            },
            {
              "internalType": "string",
              "name": "imageURI",
              "type": "string"
            },
            {
              "internalType": "uint256",
              "name": "hp",
              "type": "uint256"
            },
            {
              "internalType": "uint256",
              "name": "maxHp",
              "type": "uint256"
            },
            {
              "internalType": "uint256",
              "name": "attackDamage",
              "type": "uint256"
            }
          ],
          "internalType": "struct MyEpicGame.CharacterAttributes",
          "name": "",
          "type": "tuple"
        }
      ],
      "stateMutability": "view",
      "type": "function"
    },
    {
      "inputs": [],
      "name": "getAllDefaultCharacters",
      "outputs": [
        {
          "components": [
            {
              "internalType": "uint256",
              "name": "characterIndex",
              "type": "uint256"
            },
            {
              "internalType": "string",
              "name": "name",
              "type": "string"
            },
            {
              "internalType": "string",
              "name": "imageURI",
              "type": "string"
            },
            {
              "internalType": "uint256",
              "name": "hp",
              "type": "uint256"
            },
            {
              "internalType": "uint256",
              "name": "maxHp",
              "type": "uint256"
            },
            {
              "internalType": "uint256",
              "name": "attackDamage",
              "type": "uint256"
            }
          ],
          "internalType": "struct MyEpicGame.CharacterAttributes[]",
          "name": "",
          "type": "tuple[]"
        }
      ],
      "stateMutability": "view",
      "type": "function"
    },
    {
      "inputs": [
        {
          "internalType": "uint256",
          "name": "tokenId",
          "type": "uint256"
        }
      ],
      "name": "getApproved",
      "outputs": [
        {
          "internalType": "address",
          "name": "",
          "type": "address"
        }
      ],
      "stateMutability": "view",
      "type": "function"
    },
    {
      "inputs": [],
      "name": "getBigBoss",
      "outputs": [
        {
          "components": [
            {
              "internalType": "string",
              "name": "name",
              "type": "string"
            },
            {
              "internalType": "string",
              "name": "imageURI",
              "type": "string"
            },
            {
              "internalType": "uint256",
              "name": "hp",
              "type": "uint256"
            },
            {
              "internalType": "uint256",
              "name": "maxHp",
              "type": "uint256"
            },
            {
              "internalType": "uint256",
              "name": "attackDamage",
              "type": "uint256"
            }
          ],
          "internalType": "struct MyEpicGame.BigBoss",
          "name": "",
          "type": "tuple"
        }
      ],
      "stateMutability": "view",
      "type": "function"
    },
    {
      "inputs": [
        {
          "internalType": "address",
          "name": "owner",
          "type": "address"
        },
        {
          "internalType": "address",
          "name": "operator",
          "type": "address"
        }
      ],
      "name": "isApprovedForAll",
      "outputs": [
        {
          "internalType": "bool",
          "name": "",
          "type": "bool"
        }
      ],
      "stateMutability": "view",
      "type": "function"
    },
    {
      "inputs": [
        {
          "internalType": "uint256",
          "name": "_characterIndex",
          "type": "uint256"
        }
      ],
      "name": "mintCharacterNFT",
      "outputs": [],
      "stateMutability": "payable",
      "type": "function"
    },
    {
      "inputs": [],
      "name": "name",
      "outputs": [
        {
          "internalType": "string",
          "name": "",
          "type": "string"
        }
      ],
      "stateMutability": "view",
      "type": "function"
    },
    {
      "inputs": [
        {
          "internalType": "uint256",
          "name": "",
          "type": "uint256"
        }
      ],
      "name": "nftHolderAttributes",
      "outputs": [
        {
          "internalType": "uint256",
          "name": "characterIndex",
          "type": "uint256"
        },
        {
          "internalType": "string",
          "name": "name",
          "type": "string"
        },
        {
          "internalType": "string",
          "name": "imageURI",
          "type": "string"
        },
        {
          "internalType": "uint256",
          "name": "hp",
          "type": "uint256"
        },
        {
          "internalType": "uint256",
          "name": "maxHp",
          "type": "uint256"
        },
        {
          "internalType": "uint256",
          "name": "attackDamage",
          "type": "uint256"
        }
      ],
      "stateMutability": "view",
      "type": "function"
    },
    {
      "inputs": [
        {
          "internalType": "address",
          "name": "",
          "type": "address"
        }
      ],
      "name": "nftHolders",
      "outputs": [
        {
          "internalType": "uint256",
          "name": "",
          "type": "uint256"
        }
      ],
      "stateMutability": "view",
      "type": "function"
    },
    {
      "inputs": [],
      "name": "owner",
      "outputs": [
        {
          "internalType": "address",
          "name": "",
          "type": "address"
        }
      ],
      "stateMutability": "view",
      "type": "function"
    },
    {
      "inputs": [
        {
          "internalType": "uint256",
          "name": "tokenId",
          "type": "uint256"
        }
      ],
      "name": "ownerOf",
      "outputs": [
        {
          "internalType": "address",
          "name": "",
          "type": "address"
        }
      ],
      "stateMutability": "view",
      "type": "function"
    },
    {
      "inputs": [],
      "name": "renounceOwnership",
      "outputs": [],
      "stateMutability": "nonpayable",
      "type": "function"
    },
    {
      "inputs": [
        {
          "internalType": "address",
          "name": "from",
          "type": "address"
        },
        {
          "internalType": "address",
          "name": "to",
          "type": "address"
        },
        {
          "internalType": "uint256",
          "name": "tokenId",
          "type": "uint256"
        }
      ],
      "name": "safeTransferFrom",
      "outputs": [],
      "stateMutability": "nonpayable",
      "type": "function"
    },
    {
      "inputs": [
        {
          "internalType": "address",
          "name": "from",
          "type": "address"
        },
        {
          "internalType": "address",
          "name": "to",
          "type": "address"
        },
        {
          "internalType": "uint256",
          "name": "tokenId",
          "type": "uint256"
        },
        {
          "internalType": "bytes",
          "name": "_data",
          "type": "bytes"
        }
      ],
      "name": "safeTransferFrom",
      "outputs": [],
      "stateMutability": "nonpayable",
      "type": "function"
    },
    {
      "inputs": [
        {
          "internalType": "address",
          "name": "operator",
          "type": "address"
        },
        {
          "internalType": "bool",
          "name": "approved",
          "type": "bool"
        }
      ],
      "name": "setApprovalForAll",
      "outputs": [],
      "stateMutability": "nonpayable",
      "type": "function"
    },
    {
      "inputs": [
        {
          "internalType": "bytes4",
          "name": "interfaceId",
          "type": "bytes4"
        }
      ],
      "name": "supportsInterface",
      "outputs": [
        {
          "internalType": "bool",
          "name": "",
          "type": "bool"
        }
      ],
      "stateMutability": "view",
      "type": "function"
    },
    {
      "inputs": [],
      "name": "symbol",
      "outputs": [
        {
          "internalType": "string",
          "name": "",
          "type": "string"
        }
      ],
      "stateMutability": "view",
      "type": "function"
    },
    {
      "inputs": [
        {
          "internalType": "uint256",
          "name": "_tokenId",
          "type": "uint256"
        }
      ],
      "name": "tokenURI",
      "outputs": [
        {
          "internalType": "string",
          "name": "",
          "type": "string"
        }
      ],
      "stateMutability": "view",
      "type": "function"
    },
    {
      "inputs": [
        {
          "internalType": "address",
          "name": "from",
          "type": "address"
        },
        {
          "internalType": "address",
          "name": "to",
          "type": "address"
        },
        {
          "internalType": "uint256",
          "name": "tokenId",
          "type": "uint256"
        }
      ],
      "name": "transferFrom",
      "outputs": [],
      "stateMutability": "nonpayable",
      "type": "function"
    },
    {
      "inputs": [
        {
          "internalType": "address",
          "name": "newOwner",
          "type": "address"
        }
      ],
      "name": "transferOwnership",
      "outputs": [],
      "stateMutability": "nonpayable",
      "type": "function"
    },
    {
      "inputs": [
        {
          "internalType": "uint256",
          "name": "_fee",
          "type": "uint256"
        }
      ],
      "name": "updateFee",
      "outputs": [],
      "stateMutability": "nonpayable",
      "type": "function"
    },
    {
      "inputs": [],
      "name": "withdraw",
      "outputs": [],
      "stateMutability": "payable",
      "type": "function"
    }
  ],
  "bytecode": "0x608060405267016345785d8a00006010553480156200001d57600080fd5b5060405162005c0f38038062005c0f833981810160405281019062000043919062000961565b6040518060400160405280600681526020017f4865726f657300000000000000000000000000000000000000000000000000008152506040518060400160405280600481526020017f4845524f000000000000000000000000000000000000000000000000000000008152508160009080519060200190620000c7929190620006f4565b508060019080519060200190620000e0929190620006f4565b50505062000103620000f76200053b60201b60201c565b6200054360201b60201c565b6040518060a0016040528085815260200184815260200183815260200183815260200182815250600a60008201518160000190805190602001906200014a929190620006f4565b50602082015181600101908051906020019062000169929190620006f4565b50604082015181600201556060820151816003015560808201518160040155905050620002ec6040518060600160405280602a815260200162005be5602a9139600a6000018054620001bb9062000cec565b80601f0160208091040260200160405190810160405280929190818152602001828054620001e99062000cec565b80156200023a5780601f106200020e576101008083540402835291602001916200023a565b820191906000526020600020905b8154815290600101906020018083116200021c57829003601f168201915b5050505050600a60020154600a6001018054620002579062000cec565b80601f0160208091040260200160405190810160405280929190818152602001828054620002859062000cec565b8015620002d65780601f10620002aa57610100808354040283529160200191620002d6565b820191906000526020600020905b815481529060010190602001808311620002b857829003601f168201915b50505050506200060960201b620022151760201c565b60005b8851811015620005155760086040518060c001604052808381526020018b848151811062000346577f4e487b7100000000000000000000000000000000000000000000000000000000600052603260045260246000fd5b602002602001015181526020018a84815181106200038d577f4e487b7100000000000000000000000000000000000000000000000000000000600052603260045260246000fd5b60200260200101518152602001898481518110620003d4577f4e487b7100000000000000000000000000000000000000000000000000000000600052603260045260246000fd5b602002602001015181526020018984815181106200041b577f4e487b7100000000000000000000000000000000000000000000000000000000600052603260045260246000fd5b6020026020010151815260200188848151811062000462577f4e487b7100000000000000000000000000000000000000000000000000000000600052603260045260246000fd5b60200260200101518152509080600181540180825580915050600190039060005260206000209060060201600090919091909150600082015181600001556020820151816001019080519060200190620004be929190620006f4565b506040820151816002019080519060200190620004dd929190620006f4565b50606082015181600301556080820151816004015560a0820151816005015550506001816200050d919062000c4f565b9050620002ef565b506200052d6007620006b560201b620022b71760201c565b505050505050505062000dda565b600033905090565b6000600660009054906101000a900473ffffffffffffffffffffffffffffffffffffffff16905081600660006101000a81548173ffffffffffffffffffffffffffffffffffffffff021916908373ffffffffffffffffffffffffffffffffffffffff1602179055508173ffffffffffffffffffffffffffffffffffffffff168173ffffffffffffffffffffffffffffffffffffffff167f8be0079c531659141344cd1fd0a4f28419497f9722a3daafe3b4186f6b6457e060405160405180910390a35050565b620006af8484848460405160240162000626949392919062000b0c565b6040516020818303038152906040527f8d142cdd000000000000000000000000000000000000000000000000000000007bffffffffffffffffffffffffffffffffffffffffffffffffffffffff19166020820180517bffffffffffffffffffffffffffffffffffffffffffffffffffffffff8381831617835250505050620006cb60201b60201c565b50505050565b6001816000016000828254019250508190555050565b60008151905060006a636f6e736f6c652e6c6f679050602083016000808483855afa5050505050565b828054620007029062000cec565b90600052602060002090601f01602090048101928262000726576000855562000772565b82601f106200074157805160ff191683800117855562000772565b8280016001018555821562000772579182015b828111156200077157825182559160200191906001019062000754565b5b50905062000781919062000785565b5090565b5b80821115620007a057600081600090555060010162000786565b5090565b6000620007bb620007b58462000ba2565b62000b6e565b9050808382526020820190508260005b85811015620007ff5781518501620007e488826200091d565b845260208401935060208301925050600181019050620007cb565b5050509392505050565b6000620008206200081a8462000bd1565b62000b6e565b905080838252602082019050828560208602820111156200084057600080fd5b60005b858110156200087457816200085988826200094a565b84526020840193506020830192505060018101905062000843565b5050509392505050565b6000620008956200088f8462000c00565b62000b6e565b905082815260208101848484011115620008ae57600080fd5b620008bb84828562000cb6565b509392505050565b600082601f830112620008d557600080fd5b8151620008e7848260208601620007a4565b91505092915050565b600082601f8301126200090257600080fd5b81516200091484826020860162000809565b91505092915050565b600082601f8301126200092f57600080fd5b8151620009418482602086016200087e565b91505092915050565b6000815190506200095b8162000dc0565b92915050565b600080600080600080600080610100898b0312156200097f57600080fd5b600089015167ffffffffffffffff8111156200099a57600080fd5b620009a88b828c01620008c3565b985050602089015167ffffffffffffffff811115620009c657600080fd5b620009d48b828c01620008c3565b975050604089015167ffffffffffffffff811115620009f257600080fd5b62000a008b828c01620008f0565b965050606089015167ffffffffffffffff81111562000a1e57600080fd5b62000a2c8b828c01620008f0565b955050608089015167ffffffffffffffff81111562000a4a57600080fd5b62000a588b828c016200091d565b94505060a089015167ffffffffffffffff81111562000a7657600080fd5b62000a848b828c016200091d565b93505060c062000a978b828c016200094a565b92505060e062000aaa8b828c016200094a565b9150509295985092959890939650565b600062000ac78262000c33565b62000ad3818562000c3e565b935062000ae581856020860162000cb6565b62000af08162000daf565b840191505092915050565b62000b068162000cac565b82525050565b6000608082019050818103600083015262000b28818762000aba565b9050818103602083015262000b3e818662000aba565b905062000b4f604083018562000afb565b818103606083015262000b63818462000aba565b905095945050505050565b6000604051905081810181811067ffffffffffffffff8211171562000b985762000b9762000d80565b5b8060405250919050565b600067ffffffffffffffff82111562000bc05762000bbf62000d80565b5b602082029050602081019050919050565b600067ffffffffffffffff82111562000bef5762000bee62000d80565b5b602082029050602081019050919050565b600067ffffffffffffffff82111562000c1e5762000c1d62000d80565b5b601f19601f8301169050602081019050919050565b600081519050919050565b600082825260208201905092915050565b600062000c5c8262000cac565b915062000c698362000cac565b9250827fffffffffffffffffffffffffffffffffffffffffffffffffffffffffffffffff0382111562000ca15762000ca062000d22565b5b828201905092915050565b6000819050919050565b60005b8381101562000cd657808201518184015260208101905062000cb9565b8381111562000ce6576000848401525b50505050565b6000600282049050600182168062000d0557607f821691505b6020821081141562000d1c5762000d1b62000d51565b5b50919050565b7f4e487b7100000000000000000000000000000000000000000000000000000000600052601160045260246000fd5b7f4e487b7100000000000000000000000000000000000000000000000000000000600052602260045260246000fd5b7f4e487b7100000000000000000000000000000000000000000000000000000000600052604160045260246000fd5b6000601f19601f8301169050919050565b62000dcb8162000cac565b811462000dd757600080fd5b50565b614dfb8062000dea6000396000f3fe6080604052600436106101815760003560e01c80639012c4a8116100d1578063b953084e1161008a578063d4f24c5b11610064578063d4f24c5b1461057e578063e985e9c514610595578063f2fde38b146105d2578063f8b81ef7146105fb57610181565b8063b953084e146104eb578063c87b56dd14610516578063c8cf27f41461055357610181565b80639012c4a8146103d457806395d89b41146103fd57806398da4c9514610428578063a22cb4651461046a578063a9c3267914610493578063b88d4fde146104c257610181565b80633ccfd60b1161013e57806370a082311161011857806370a0823114610318578063715018a6146103555780637df124a11461036c5780638da5cb5b146103a957610181565b80633ccfd60b146102a857806342842e0e146102b25780636352211e146102db57610181565b806301ffc9a7146101865780630665f961146101c357806306fdde03146101ee578063081812fc14610219578063095ea7b31461025657806323b872dd1461027f575b600080fd5b34801561019257600080fd5b506101ad60048036038101906101a891906135b5565b610617565b6040516101ba9190614395565b60405180910390f35b3480156101cf57600080fd5b506101d86106f9565b6040516101e5919061476e565b60405180910390f35b3480156101fa57600080fd5b50610203610855565b60405161021091906143b0565b60405180910390f35b34801561022557600080fd5b50610240600480360381019061023b9190613607565b6108e7565b60405161024d91906142d5565b60405180910390f35b34801561026257600080fd5b5061027d60048036038101906102789190613579565b61096c565b005b34801561028b57600080fd5b506102a660048036038101906102a19190613473565b610a84565b005b6102b0610ae4565b005b3480156102be57600080fd5b506102d960048036038101906102d49190613473565b610bb6565b005b3480156102e757600080fd5b5061030260048036038101906102fd9190613607565b610bd6565b60405161030f91906142d5565b60405180910390f35b34801561032457600080fd5b5061033f600480360381019061033a919061340e565b610c88565b60405161034c91906147b2565b60405180910390f35b34801561036157600080fd5b5061036a610d40565b005b34801561037857600080fd5b50610393600480360381019061038e919061340e565b610dc8565b6040516103a091906147b2565b60405180910390f35b3480156103b557600080fd5b506103be610de0565b6040516103cb91906142d5565b60405180910390f35b3480156103e057600080fd5b506103fb60048036038101906103f69190613607565b610e0a565b005b34801561040957600080fd5b50610412610e90565b60405161041f91906143b0565b60405180910390f35b34801561043457600080fd5b5061044f600480360381019061044a9190613607565b610f22565b604051610461969594939291906147cd565b60405180910390f35b34801561047657600080fd5b50610491600480360381019061048c919061353d565b61106e565b005b34801561049f57600080fd5b506104a86111ef565b6040516104b995949392919061447f565b60405180910390f35b3480156104ce57600080fd5b506104e960048036038101906104e491906134c2565b611323565b005b3480156104f757600080fd5b50610500611385565b60405161050d9190614373565b60405180910390f35b34801561052257600080fd5b5061053d60048036038101906105389190613607565b611530565b60405161054a91906143b0565b60405180910390f35b34801561055f57600080fd5b5061056861174b565b6040516105759190614790565b60405180910390f35b34801561058a57600080fd5b50610593611923565b005b3480156105a157600080fd5b506105bc60048036038101906105b79190613437565b611c87565b6040516105c99190614395565b60405180910390f35b3480156105de57600080fd5b506105f960048036038101906105f4919061340e565b611d1b565b005b61061560048036038101906106109190613607565b611e13565b005b60007f80ac58cd000000000000000000000000000000000000000000000000000000007bffffffffffffffffffffffffffffffffffffffffffffffffffffffff1916827bffffffffffffffffffffffffffffffffffffffffffffffffffffffff191614806106e257507f5b5e139f000000000000000000000000000000000000000000000000000000007bffffffffffffffffffffffffffffffffffffffffffffffffffffffff1916827bffffffffffffffffffffffffffffffffffffffffffffffffffffffff1916145b806106f257506106f1826122cd565b5b9050919050565b610701613235565b600a6040518060a001604052908160008201805461071e90614b1e565b80601f016020809104026020016040519081016040528092919081815260200182805461074a90614b1e565b80156107975780601f1061076c57610100808354040283529160200191610797565b820191906000526020600020905b81548152906001019060200180831161077a57829003601f168201915b505050505081526020016001820180546107b090614b1e565b80601f01602080910402602001604051908101604052809291908181526020018280546107dc90614b1e565b80156108295780601f106107fe57610100808354040283529160200191610829565b820191906000526020600020905b81548152906001019060200180831161080c57829003601f168201915b505050505081526020016002820154815260200160038201548152602001600482015481525050905090565b60606000805461086490614b1e565b80601f016020809104026020016040519081016040528092919081815260200182805461089090614b1e565b80156108dd5780601f106108b2576101008083540402835291602001916108dd565b820191906000526020600020905b8154815290600101906020018083116108c057829003601f168201915b5050505050905090565b60006108f282612337565b610931576040517f08c379a0000000000000000000000000000000000000000000000000000000008152600401610928906146ce565b60405180910390fd5b6004600083815260200190815260200160002060009054906101000a900473ffffffffffffffffffffffffffffffffffffffff169050919050565b600061097782610bd6565b90508073ffffffffffffffffffffffffffffffffffffffff168373ffffffffffffffffffffffffffffffffffffffff1614156109e8576040517f08c379a00000000000000000000000000000000000000000000000000000000081526004016109df9061472e565b60405180910390fd5b8073ffffffffffffffffffffffffffffffffffffffff16610a076123a3565b73ffffffffffffffffffffffffffffffffffffffff161480610a365750610a3581610a306123a3565b611c87565b5b610a75576040517f08c379a0000000000000000000000000000000000000000000000000000000008152600401610a6c9061462e565b60405180910390fd5b610a7f83836123ab565b505050565b610a95610a8f6123a3565b82612464565b610ad4576040517f08c379a0000000000000000000000000000000000000000000000000000000008152600401610acb9061474e565b60405180910390fd5b610adf838383612542565b505050565b610aec6123a3565b73ffffffffffffffffffffffffffffffffffffffff16610b0a610de0565b73ffffffffffffffffffffffffffffffffffffffff1614610b60576040517f08c379a0000000000000000000000000000000000000000000000000000000008152600401610b57906146ee565b60405180910390fd5b6000610b6a610de0565b90508073ffffffffffffffffffffffffffffffffffffffff166108fc479081150290604051600060405180830381858888f19350505050158015610bb2573d6000803e3d6000fd5b5050565b610bd183838360405180602001604052806000815250611323565b505050565b6000806002600084815260200190815260200160002060009054906101000a900473ffffffffffffffffffffffffffffffffffffffff169050600073ffffffffffffffffffffffffffffffffffffffff168173ffffffffffffffffffffffffffffffffffffffff161415610c7f576040517f08c379a0000000000000000000000000000000000000000000000000000000008152600401610c769061466e565b60405180910390fd5b80915050919050565b60008073ffffffffffffffffffffffffffffffffffffffff168273ffffffffffffffffffffffffffffffffffffffff161415610cf9576040517f08c379a0000000000000000000000000000000000000000000000000000000008152600401610cf09061464e565b60405180910390fd5b600360008373ffffffffffffffffffffffffffffffffffffffff1673ffffffffffffffffffffffffffffffffffffffff168152602001908152602001600020549050919050565b610d486123a3565b73ffffffffffffffffffffffffffffffffffffffff16610d66610de0565b73ffffffffffffffffffffffffffffffffffffffff1614610dbc576040517f08c379a0000000000000000000000000000000000000000000000000000000008152600401610db3906146ee565b60405180910390fd5b610dc6600061279e565b565b600f6020528060005260406000206000915090505481565b6000600660009054906101000a900473ffffffffffffffffffffffffffffffffffffffff16905090565b610e126123a3565b73ffffffffffffffffffffffffffffffffffffffff16610e30610de0565b73ffffffffffffffffffffffffffffffffffffffff1614610e86576040517f08c379a0000000000000000000000000000000000000000000000000000000008152600401610e7d906146ee565b60405180910390fd5b8060108190555050565b606060018054610e9f90614b1e565b80601f0160208091040260200160405190810160405280929190818152602001828054610ecb90614b1e565b8015610f185780601f10610eed57610100808354040283529160200191610f18565b820191906000526020600020905b815481529060010190602001808311610efb57829003601f168201915b5050505050905090565b6009602052806000526040600020600091509050806000015490806001018054610f4b90614b1e565b80601f0160208091040260200160405190810160405280929190818152602001828054610f7790614b1e565b8015610fc45780601f10610f9957610100808354040283529160200191610fc4565b820191906000526020600020905b815481529060010190602001808311610fa757829003601f168201915b505050505090806002018054610fd990614b1e565b80601f016020809104026020016040519081016040528092919081815260200182805461100590614b1e565b80156110525780601f1061102757610100808354040283529160200191611052565b820191906000526020600020905b81548152906001019060200180831161103557829003601f168201915b5050505050908060030154908060040154908060050154905086565b6110766123a3565b73ffffffffffffffffffffffffffffffffffffffff168273ffffffffffffffffffffffffffffffffffffffff1614156110e4576040517f08c379a00000000000000000000000000000000000000000000000000000000081526004016110db906145ee565b60405180910390fd5b80600560006110f16123a3565b73ffffffffffffffffffffffffffffffffffffffff1673ffffffffffffffffffffffffffffffffffffffff16815260200190815260200160002060008473ffffffffffffffffffffffffffffffffffffffff1673ffffffffffffffffffffffffffffffffffffffff16815260200190815260200160002060006101000a81548160ff0219169083151502179055508173ffffffffffffffffffffffffffffffffffffffff1661119e6123a3565b73ffffffffffffffffffffffffffffffffffffffff167f17307eab39ab6107e8899845ad3d59bd9653f200f220920489ca2b5937696c31836040516111e39190614395565b60405180910390a35050565b600a80600001805461120090614b1e565b80601f016020809104026020016040519081016040528092919081815260200182805461122c90614b1e565b80156112795780601f1061124e57610100808354040283529160200191611279565b820191906000526020600020905b81548152906001019060200180831161125c57829003601f168201915b50505050509080600101805461128e90614b1e565b80601f01602080910402602001604051908101604052809291908181526020018280546112ba90614b1e565b80156113075780601f106112dc57610100808354040283529160200191611307565b820191906000526020600020905b8154815290600101906020018083116112ea57829003601f168201915b5050505050908060020154908060030154908060040154905085565b61133461132e6123a3565b83612464565b611373576040517f08c379a000000000000000000000000000000000000000000000000000000000815260040161136a9061474e565b60405180910390fd5b61137f84848484612864565b50505050565b60606008805480602002602001604051908101604052809291908181526020016000905b8282101561152757838290600052602060002090600602016040518060c0016040529081600082015481526020016001820180546113e690614b1e565b80601f016020809104026020016040519081016040528092919081815260200182805461141290614b1e565b801561145f5780601f106114345761010080835404028352916020019161145f565b820191906000526020600020905b81548152906001019060200180831161144257829003601f168201915b5050505050815260200160028201805461147890614b1e565b80601f01602080910402602001604051908101604052809291908181526020018280546114a490614b1e565b80156114f15780601f106114c6576101008083540402835291602001916114f1565b820191906000526020600020905b8154815290600101906020018083116114d457829003601f168201915b505050505081526020016003820154815260200160048201548152602001600582015481525050815260200190600101906113a9565b50505050905090565b60606000600960008481526020019081526020016000206040518060c00160405290816000820154815260200160018201805461156c90614b1e565b80601f016020809104026020016040519081016040528092919081815260200182805461159890614b1e565b80156115e55780601f106115ba576101008083540402835291602001916115e5565b820191906000526020600020905b8154815290600101906020018083116115c857829003601f168201915b505050505081526020016002820180546115fe90614b1e565b80601f016020809104026020016040519081016040528092919081815260200182805461162a90614b1e565b80156116775780601f1061164c57610100808354040283529160200191611677565b820191906000526020600020905b81548152906001019060200180831161165a57829003601f168201915b505050505081526020016003820154815260200160048201548152602001600582015481525050905060006116af82606001516128c0565b905060006116c083608001516128c0565b905060006116d18460a001516128c0565b9050600061171785602001516116e6896128c0565b87604001518787876040516020016117039695949392919061420e565b604051602081830303815290604052612a6d565b905060008160405160200161172c91906142b3565b6040516020818303038152906040529050809650505050505050919050565b611753613264565b6000600f60003373ffffffffffffffffffffffffffffffffffffffff1673ffffffffffffffffffffffffffffffffffffffff168152602001908152602001600020549050600081111561191257600960008281526020019081526020016000206040518060c0016040529081600082015481526020016001820180546117d890614b1e565b80601f016020809104026020016040519081016040528092919081815260200182805461180490614b1e565b80156118515780601f1061182657610100808354040283529160200191611851565b820191906000526020600020905b81548152906001019060200180831161183457829003601f168201915b5050505050815260200160028201805461186a90614b1e565b80601f016020809104026020016040519081016040528092919081815260200182805461189690614b1e565b80156118e35780601f106118b8576101008083540402835291602001916118e3565b820191906000526020600020905b8154815290600101906020018083116118c657829003601f168201915b505050505081526020016003820154815260200160048201548152602001600582015481525050915050611920565b61191a613264565b80925050505b90565b6000600f60003373ffffffffffffffffffffffffffffffffffffffff1673ffffffffffffffffffffffffffffffffffffffff1681526020019081526020016000205490506000600960008381526020019081526020016000209050611a366040518060600160405280603c8152602001614d8a603c91398260010180546119a990614b1e565b80601f01602080910402602001604051908101604052809291908181526020018280546119d590614b1e565b8015611a225780601f106119f757610100808354040283529160200191611a22565b820191906000526020600020905b815481529060010190602001808311611a0557829003601f168201915b505050505083600301548460050154612c2b565b611b0e6040518060400160405280601b81526020017f426f73732025732068617320257320485020616e642025732041440000000000815250600a6000018054611a7f90614b1e565b80601f0160208091040260200160405190810160405280929190818152602001828054611aab90614b1e565b8015611af85780601f10611acd57610100808354040283529160200191611af8565b820191906000526020600020905b815481529060010190602001808311611adb57829003601f168201915b5050505050600a60020154600a60040154612c2b565b6000816003015411611b55576040517f08c379a0000000000000000000000000000000000000000000000000000000008152600401611b4c9061468e565b60405180910390fd5b6000600a6002015411611b9d576040517f08c379a0000000000000000000000000000000000000000000000000000000008152600401611b949061458e565b60405180910390fd5b8060050154600a600201541015611bbe576000600a60020181905550611bdd565b8060050154600a60020154611bd39190614a34565b600a600201819055505b600a6004015481600301541015611bfd5760008160030181905550611c1b565b600a600401548160030154611c129190614a34565b81600301819055505b611c41604051806060016040528060288152602001614d34602891398260030154612ccd565b7f838ab28464562786a6c4ab2311964b82fa60bd9b14aa7e856af1f3f18d41a414600a600201548260030154604051611c7b92919061483c565b60405180910390a15050565b6000600560008473ffffffffffffffffffffffffffffffffffffffff1673ffffffffffffffffffffffffffffffffffffffff16815260200190815260200160002060008373ffffffffffffffffffffffffffffffffffffffff1673ffffffffffffffffffffffffffffffffffffffff16815260200190815260200160002060009054906101000a900460ff16905092915050565b611d236123a3565b73ffffffffffffffffffffffffffffffffffffffff16611d41610de0565b73ffffffffffffffffffffffffffffffffffffffff1614611d97576040517f08c379a0000000000000000000000000000000000000000000000000000000008152600401611d8e906146ee565b60405180910390fd5b600073ffffffffffffffffffffffffffffffffffffffff168173ffffffffffffffffffffffffffffffffffffffff161415611e07576040517f08c379a0000000000000000000000000000000000000000000000000000000008152600401611dfe9061456e565b60405180910390fd5b611e108161279e565b50565b6010543414611e2157600080fd5b6000611e2d6007612d69565b9050611e393382612d77565b6040518060c0016040528083815260200160088481548110611e84577f4e487b7100000000000000000000000000000000000000000000000000000000600052603260045260246000fd5b90600052602060002090600602016001018054611ea090614b1e565b80601f0160208091040260200160405190810160405280929190818152602001828054611ecc90614b1e565b8015611f195780601f10611eee57610100808354040283529160200191611f19565b820191906000526020600020905b815481529060010190602001808311611efc57829003601f168201915b5050505050815260200160088481548110611f5d577f4e487b7100000000000000000000000000000000000000000000000000000000600052603260045260246000fd5b90600052602060002090600602016002018054611f7990614b1e565b80601f0160208091040260200160405190810160405280929190818152602001828054611fa590614b1e565b8015611ff25780601f10611fc757610100808354040283529160200191611ff2565b820191906000526020600020905b815481529060010190602001808311611fd557829003601f168201915b5050505050815260200160088481548110612036577f4e487b7100000000000000000000000000000000000000000000000000000000600052603260045260246000fd5b906000526020600020906006020160030154815260200160088481548110612087577f4e487b7100000000000000000000000000000000000000000000000000000000600052603260045260246000fd5b9060005260206000209060060201600301548152602001600884815481106120d8577f4e487b7100000000000000000000000000000000000000000000000000000000600052603260045260246000fd5b9060005260206000209060060201600501548152506009600083815260200190815260200160002060008201518160000155602082015181600101908051906020019061212692919061329a565b50604082015181600201908051906020019061214392919061329a565b50606082015181600301556080820151816004015560a082015181600501559050506121886040518060600160405280602e8152602001614d5c602e91398284612d95565b80600f60003373ffffffffffffffffffffffffffffffffffffffff1673ffffffffffffffffffffffffffffffffffffffff168152602001908152602001600020819055506121d660076122b7565b7f4bc303fd457a97b4691b9af582ce71868a3d258638c8d4f8c60988a0f0bfb8cd3382846040516122099392919061433c565b60405180910390a15050565b6122b18484848460405160240161222f94939291906143d2565b6040516020818303038152906040527f8d142cdd000000000000000000000000000000000000000000000000000000007bffffffffffffffffffffffffffffffffffffffffffffffffffffffff19166020820180517bffffffffffffffffffffffffffffffffffffffffffffffffffffffff8381831617835250505050612e34565b50505050565b6001816000016000828254019250508190555050565b60007f01ffc9a7000000000000000000000000000000000000000000000000000000007bffffffffffffffffffffffffffffffffffffffffffffffffffffffff1916827bffffffffffffffffffffffffffffffffffffffffffffffffffffffff1916149050919050565b60008073ffffffffffffffffffffffffffffffffffffffff166002600084815260200190815260200160002060009054906101000a900473ffffffffffffffffffffffffffffffffffffffff1673ffffffffffffffffffffffffffffffffffffffff1614159050919050565b600033905090565b816004600083815260200190815260200160002060006101000a81548173ffffffffffffffffffffffffffffffffffffffff021916908373ffffffffffffffffffffffffffffffffffffffff160217905550808273ffffffffffffffffffffffffffffffffffffffff1661241e83610bd6565b73ffffffffffffffffffffffffffffffffffffffff167f8c5be1e5ebec7d5bd14f71427d1e84f3dd0314c0f7b2291e5b200ac8c7c3b92560405160405180910390a45050565b600061246f82612337565b6124ae576040517f08c379a00000000000000000000000000000000000000000000000000000000081526004016124a59061460e565b60405180910390fd5b60006124b983610bd6565b90508073ffffffffffffffffffffffffffffffffffffffff168473ffffffffffffffffffffffffffffffffffffffff16148061252857508373ffffffffffffffffffffffffffffffffffffffff16612510846108e7565b73ffffffffffffffffffffffffffffffffffffffff16145b8061253957506125388185611c87565b5b91505092915050565b8273ffffffffffffffffffffffffffffffffffffffff1661256282610bd6565b73ffffffffffffffffffffffffffffffffffffffff16146125b8576040517f08c379a00000000000000000000000000000000000000000000000000000000081526004016125af9061470e565b60405180910390fd5b600073ffffffffffffffffffffffffffffffffffffffff168273ffffffffffffffffffffffffffffffffffffffff161415612628576040517f08c379a000000000000000000000000000000000000000000000000000000000815260040161261f906145ce565b60405180910390fd5b612633838383612e5d565b61263e6000826123ab565b6001600360008573ffffffffffffffffffffffffffffffffffffffff1673ffffffffffffffffffffffffffffffffffffffff168152602001908152602001600020600082825461268e9190614a34565b925050819055506001600360008473ffffffffffffffffffffffffffffffffffffffff1673ffffffffffffffffffffffffffffffffffffffff16815260200190815260200160002060008282546126e59190614953565b92505081905550816002600083815260200190815260200160002060006101000a81548173ffffffffffffffffffffffffffffffffffffffff021916908373ffffffffffffffffffffffffffffffffffffffff160217905550808273ffffffffffffffffffffffffffffffffffffffff168473ffffffffffffffffffffffffffffffffffffffff167fddf252ad1be2c89b69c2b068fc378daa952ba7f163c4a11628f55a4df523b3ef60405160405180910390a4505050565b6000600660009054906101000a900473ffffffffffffffffffffffffffffffffffffffff16905081600660006101000a81548173ffffffffffffffffffffffffffffffffffffffff021916908373ffffffffffffffffffffffffffffffffffffffff1602179055508173ffffffffffffffffffffffffffffffffffffffff168173ffffffffffffffffffffffffffffffffffffffff167f8be0079c531659141344cd1fd0a4f28419497f9722a3daafe3b4186f6b6457e060405160405180910390a35050565b61286f848484612542565b61287b84848484612e62565b6128ba576040517f08c379a00000000000000000000000000000000000000000000000000000000081526004016128b19061454e565b60405180910390fd5b50505050565b60606000821415612908576040518060400160405280600181526020017f30000000000000000000000000000000000000000000000000000000000000008152509050612a68565b600082905060005b6000821461293a57808061292390614b50565b915050600a8261293391906149a9565b9150612910565b60008167ffffffffffffffff81111561297c577f4e487b7100000000000000000000000000000000000000000000000000000000600052604160045260246000fd5b6040519080825280601f01601f1916602001820160405280156129ae5781602001600182028036833780820191505090505b5090505b60008514612a61576001826129c79190614a34565b9150600a856129d69190614b99565b60306129e29190614953565b60f81b818381518110612a1e577f4e487b7100000000000000000000000000000000000000000000000000000000600052603260045260246000fd5b60200101907effffffffffffffffffffffffffffffffffffffffffffffffffffffffffffff1916908160001a905350600a85612a5a91906149a9565b94506129b2565b8093505050505b919050565b60606000825190506000811415612a965760405180602001604052806000815250915050612c26565b60006003600283612aa79190614953565b612ab191906149a9565b6004612abd91906149da565b90506000602082612ace9190614953565b67ffffffffffffffff811115612b0d577f4e487b7100000000000000000000000000000000000000000000000000000000600052604160045260246000fd5b6040519080825280601f01601f191660200182016040528015612b3f5781602001600182028036833780820191505090505b5090506000604051806060016040528060408152602001614cf4604091399050600181016020830160005b86811015612be35760038101905062ffffff818a015116603f8160121c168401518060081b905060ff603f83600c1c1686015116810190508060081b905060ff603f8360061c1686015116810190508060081b905060ff603f831686015116810190508060e01b90508084526004840193505050612b6a565b506003860660018114612bfd5760028114612c0d57612c18565b613d3d60f01b6002830352612c18565b603d60f81b60018303525b508484525050819450505050505b919050565b612cc784848484604051602401612c45949392919061442c565b6040516020818303038152906040527fd5cf17d0000000000000000000000000000000000000000000000000000000007bffffffffffffffffffffffffffffffffffffffffffffffffffffffff19166020820180517bffffffffffffffffffffffffffffffffffffffffffffffffffffffff8381831617835250505050612e34565b50505050565b612d658282604051602401612ce39291906144e0565b6040516020818303038152906040527f9710a9d0000000000000000000000000000000000000000000000000000000007bffffffffffffffffffffffffffffffffffffffffffffffffffffffff19166020820180517bffffffffffffffffffffffffffffffffffffffffffffffffffffffff8381831617835250505050612e34565b5050565b600081600001549050919050565b612d91828260405180602001604052806000815250612ff9565b5050565b612e2f838383604051602401612dad93929190614510565b6040516020818303038152906040527f969cdd03000000000000000000000000000000000000000000000000000000007bffffffffffffffffffffffffffffffffffffffffffffffffffffffff19166020820180517bffffffffffffffffffffffffffffffffffffffffffffffffffffffff8381831617835250505050612e34565b505050565b60008151905060006a636f6e736f6c652e6c6f679050602083016000808483855afa5050505050565b505050565b6000612e838473ffffffffffffffffffffffffffffffffffffffff16613054565b15612fec578373ffffffffffffffffffffffffffffffffffffffff1663150b7a02612eac6123a3565b8786866040518563ffffffff1660e01b8152600401612ece94939291906142f0565b602060405180830381600087803b158015612ee857600080fd5b505af1925050508015612f1957506040513d601f19601f82011682018060405250810190612f1691906135de565b60015b612f9c573d8060008114612f49576040519150601f19603f3d011682016040523d82523d6000602084013e612f4e565b606091505b50600081511415612f94576040517f08c379a0000000000000000000000000000000000000000000000000000000008152600401612f8b9061454e565b60405180910390fd5b805181602001fd5b63150b7a0260e01b7bffffffffffffffffffffffffffffffffffffffffffffffffffffffff1916817bffffffffffffffffffffffffffffffffffffffffffffffffffffffff191614915050612ff1565b600190505b949350505050565b6130038383613067565b6130106000848484612e62565b61304f576040517f08c379a00000000000000000000000000000000000000000000000000000000081526004016130469061454e565b60405180910390fd5b505050565b600080823b905060008111915050919050565b600073ffffffffffffffffffffffffffffffffffffffff168273ffffffffffffffffffffffffffffffffffffffff1614156130d7576040517f08c379a00000000000000000000000000000000000000000000000000000000081526004016130ce906146ae565b60405180910390fd5b6130e081612337565b15613120576040517f08c379a0000000000000000000000000000000000000000000000000000000008152600401613117906145ae565b60405180910390fd5b61312c60008383612e5d565b6001600360008473ffffffffffffffffffffffffffffffffffffffff1673ffffffffffffffffffffffffffffffffffffffff168152602001908152602001600020600082825461317c9190614953565b92505081905550816002600083815260200190815260200160002060006101000a81548173ffffffffffffffffffffffffffffffffffffffff021916908373ffffffffffffffffffffffffffffffffffffffff160217905550808273ffffffffffffffffffffffffffffffffffffffff16600073ffffffffffffffffffffffffffffffffffffffff167fddf252ad1be2c89b69c2b068fc378daa952ba7f163c4a11628f55a4df523b3ef60405160405180910390a45050565b6040518060a0016040528060608152602001606081526020016000815260200160008152602001600081525090565b6040518060c001604052806000815260200160608152602001606081526020016000815260200160008152602001600081525090565b8280546132a690614b1e565b90600052602060002090601f0160209004810192826132c8576000855561330f565b82601f106132e157805160ff191683800117855561330f565b8280016001018555821561330f579182015b8281111561330e5782518255916020019190600101906132f3565b5b50905061331c9190613320565b5090565b5b80821115613339576000816000905550600101613321565b5090565b600061335061334b84614896565b614865565b90508281526020810184848401111561336857600080fd5b613373848285614adc565b509392505050565b60008135905061338a81614c97565b92915050565b60008135905061339f81614cae565b92915050565b6000813590506133b481614cc5565b92915050565b6000815190506133c981614cc5565b92915050565b600082601f8301126133e057600080fd5b81356133f084826020860161333d565b91505092915050565b60008135905061340881614cdc565b92915050565b60006020828403121561342057600080fd5b600061342e8482850161337b565b91505092915050565b6000806040838503121561344a57600080fd5b60006134588582860161337b565b92505060206134698582860161337b565b9150509250929050565b60008060006060848603121561348857600080fd5b60006134968682870161337b565b93505060206134a78682870161337b565b92505060406134b8868287016133f9565b9150509250925092565b600080600080608085870312156134d857600080fd5b60006134e68782880161337b565b94505060206134f78782880161337b565b9350506040613508878288016133f9565b925050606085013567ffffffffffffffff81111561352557600080fd5b613531878288016133cf565b91505092959194509250565b6000806040838503121561355057600080fd5b600061355e8582860161337b565b925050602061356f85828601613390565b9150509250929050565b6000806040838503121561358c57600080fd5b600061359a8582860161337b565b92505060206135ab858286016133f9565b9150509250929050565b6000602082840312156135c757600080fd5b60006135d5848285016133a5565b91505092915050565b6000602082840312156135f057600080fd5b60006135fe848285016133ba565b91505092915050565b60006020828403121561361957600080fd5b6000613627848285016133f9565b91505092915050565b600061363c83836140d0565b905092915050565b61364d81614a68565b82525050565b600061365e826148d6565b6136688185614904565b93508360208202850161367a856148c6565b8060005b858110156136b657848403895281516136978582613630565b94506136a2836148f7565b925060208a0199505060018101905061367e565b50829750879550505050505092915050565b6136d181614a7a565b82525050565b60006136e2826148e1565b6136ec8185614915565b93506136fc818560208601614aeb565b61370581614c86565b840191505092915050565b600061371b826148ec565b6137258185614926565b9350613735818560208601614aeb565b61373e81614c86565b840191505092915050565b6000613754826148ec565b61375e8185614937565b935061376e818560208601614aeb565b61377781614c86565b840191505092915050565b600061378d826148ec565b6137978185614948565b93506137a7818560208601614aeb565b80840191505092915050565b60006137c0600b83614948565b91507f202d2d204e465420233a200000000000000000000000000000000000000000006000830152600b82019050919050565b6000613800603283614937565b91507f4552433732313a207472616e7366657220746f206e6f6e20455243373231526560008301527f63656976657220696d706c656d656e74657200000000000000000000000000006020830152604082019050919050565b6000613866602683614937565b91507f4f776e61626c653a206e6577206f776e657220697320746865207a65726f206160008301527f64647265737300000000000000000000000000000000000000000000000000006020830152604082019050919050565b60006138cc602883614937565b91507f4572726f723a20626f7373206d757374206861766520485020746f206174746160008301527f636b20626f73732e0000000000000000000000000000000000000000000000006020830152604082019050919050565b6000613932601c83614937565b91507f4552433732313a20746f6b656e20616c7265616479206d696e746564000000006000830152602082019050919050565b6000613972603283614948565b91507f222c20226465736372697074696f6e223a2022416e2065706963204e4654222c60008301527f2022696d616765223a2022697066733a2f2f00000000000000000000000000006020830152603282019050919050565b60006139d8600e83614948565b91507f2c20226d61785f76616c7565223a0000000000000000000000000000000000006000830152600e82019050919050565b6000613a18602483614937565b91507f4552433732313a207472616e7366657220746f20746865207a65726f2061646460008301527f72657373000000000000000000000000000000000000000000000000000000006020830152604082019050919050565b6000613a7e601983614937565b91507f4552433732313a20617070726f766520746f2063616c6c6572000000000000006000830152602082019050919050565b6000613abe602c83614937565b91507f4552433732313a206f70657261746f7220717565727920666f72206e6f6e657860008301527f697374656e7420746f6b656e00000000000000000000000000000000000000006020830152604082019050919050565b6000613b24603883614937565b91507f4552433732313a20617070726f76652063616c6c6572206973206e6f74206f7760008301527f6e6572206e6f7220617070726f76656420666f7220616c6c00000000000000006020830152604082019050919050565b6000613b8a602a83614937565b91507f4552433732313a2062616c616e636520717565727920666f7220746865207a6560008301527f726f2061646472657373000000000000000000000000000000000000000000006020830152604082019050919050565b6000613bf0602983614937565b91507f4552433732313a206f776e657220717565727920666f72206e6f6e657869737460008301527f656e7420746f6b656e00000000000000000000000000000000000000000000006020830152604082019050919050565b6000613c56602d83614937565b91507f4572726f723a20636861726163746572206d757374206861766520485020746f60008301527f2061747461636b20626f73732e000000000000000000000000000000000000006020830152604082019050919050565b6000613cbc600483614948565b91507f7d205d7d000000000000000000000000000000000000000000000000000000006000830152600482019050919050565b6000613cfc602083614937565b91507f4552433732313a206d696e7420746f20746865207a65726f20616464726573736000830152602082019050919050565b6000613d3c602c83614937565b91507f4552433732313a20617070726f76656420717565727920666f72206e6f6e657860008301527f697374656e7420746f6b656e00000000000000000000000000000000000000006020830152604082019050919050565b6000613da2602083614937565b91507f4f776e61626c653a2063616c6c6572206973206e6f7420746865206f776e65726000830152602082019050919050565b6000613de2602983614937565b91507f4552433732313a207472616e73666572206f6620746f6b656e2074686174206960008301527f73206e6f74206f776e00000000000000000000000000000000000000000000006020830152604082019050919050565b6000613e48600a83614948565b91507f7b226e616d65223a2022000000000000000000000000000000000000000000006000830152600a82019050919050565b6000613e88602183614937565b91507f4552433732313a20617070726f76616c20746f2063757272656e74206f776e6560008301527f72000000000000000000000000000000000000000000000000000000000000006020830152604082019050919050565b6000613eee601d83614948565b91507f646174613a6170706c69636174696f6e2f6a736f6e3b6261736536342c0000006000830152601d82019050919050565b6000613f2e603183614937565b91507f4552433732313a207472616e736665722063616c6c6572206973206e6f74206f60008301527f776e6572206e6f7220617070726f7665640000000000000000000000000000006020830152604082019050919050565b6000613f94603d83614948565b91507f222c202261747472696275746573223a205b207b202274726169745f7479706560008301527f223a20224865616c746820506f696e7473222c202276616c7565223a200000006020830152603d82019050919050565b6000613ffa602d83614948565b91507f7d2c207b202274726169745f74797065223a202241747461636b2044616d616760008301527f65222c202276616c7565223a20000000000000000000000000000000000000006020830152602d82019050919050565b600060a08301600083015184820360008601526140708282613710565b9150506020830151848203602086015261408a8282613710565b915050604083015161409f60408601826141f0565b5060608301516140b260608601826141f0565b5060808301516140c560808601826141f0565b508091505092915050565b600060c0830160008301516140e860008601826141f0565b50602083015184820360208601526141008282613710565b9150506040830151848203604086015261411a8282613710565b915050606083015161412f60608601826141f0565b50608083015161414260808601826141f0565b5060a083015161415560a08601826141f0565b508091505092915050565b600060c08301600083015161417860008601826141f0565b50602083015184820360208601526141908282613710565b915050604083015184820360408601526141aa8282613710565b91505060608301516141bf60608601826141f0565b5060808301516141d260808601826141f0565b5060a08301516141e560a08601826141f0565b508091505092915050565b6141f981614ad2565b82525050565b61420881614ad2565b82525050565b600061421982613e3b565b91506142258289613782565b9150614230826137b3565b915061423c8288613782565b915061424782613965565b91506142538287613782565b915061425e82613f87565b915061426a8286613782565b9150614275826139cb565b91506142818285613782565b915061428c82613fed565b91506142988284613782565b91506142a382613caf565b9150819050979650505050505050565b60006142be82613ee1565b91506142ca8284613782565b915081905092915050565b60006020820190506142ea6000830184613644565b92915050565b60006080820190506143056000830187613644565b6143126020830186613644565b61431f60408301856141ff565b818103606083015261433181846136d7565b905095945050505050565b60006060820190506143516000830186613644565b61435e60208301856141ff565b61436b60408301846141ff565b949350505050565b6000602082019050818103600083015261438d8184613653565b905092915050565b60006020820190506143aa60008301846136c8565b92915050565b600060208201905081810360008301526143ca8184613749565b905092915050565b600060808201905081810360008301526143ec8187613749565b905081810360208301526144008186613749565b905061440f60408301856141ff565b81810360608301526144218184613749565b905095945050505050565b600060808201905081810360008301526144468187613749565b9050818103602083015261445a8186613749565b905061446960408301856141ff565b61447660608301846141ff565b95945050505050565b600060a08201905081810360008301526144998188613749565b905081810360208301526144ad8187613749565b90506144bc60408301866141ff565b6144c960608301856141ff565b6144d660808301846141ff565b9695505050505050565b600060408201905081810360008301526144fa8185613749565b905061450960208301846141ff565b9392505050565b6000606082019050818103600083015261452a8186613749565b905061453960208301856141ff565b61454660408301846141ff565b949350505050565b60006020820190508181036000830152614567816137f3565b9050919050565b6000602082019050818103600083015261458781613859565b9050919050565b600060208201905081810360008301526145a7816138bf565b9050919050565b600060208201905081810360008301526145c781613925565b9050919050565b600060208201905081810360008301526145e781613a0b565b9050919050565b6000602082019050818103600083015261460781613a71565b9050919050565b6000602082019050818103600083015261462781613ab1565b9050919050565b6000602082019050818103600083015261464781613b17565b9050919050565b6000602082019050818103600083015261466781613b7d565b9050919050565b6000602082019050818103600083015261468781613be3565b9050919050565b600060208201905081810360008301526146a781613c49565b9050919050565b600060208201905081810360008301526146c781613cef565b9050919050565b600060208201905081810360008301526146e781613d2f565b9050919050565b6000602082019050818103600083015261470781613d95565b9050919050565b6000602082019050818103600083015261472781613dd5565b9050919050565b6000602082019050818103600083015261474781613e7b565b9050919050565b6000602082019050818103600083015261476781613f21565b9050919050565b600060208201905081810360008301526147888184614053565b905092915050565b600060208201905081810360008301526147aa8184614160565b905092915050565b60006020820190506147c760008301846141ff565b92915050565b600060c0820190506147e260008301896141ff565b81810360208301526147f48188613749565b905081810360408301526148088187613749565b905061481760608301866141ff565b61482460808301856141ff565b61483160a08301846141ff565b979650505050505050565b600060408201905061485160008301856141ff565b61485e60208301846141ff565b9392505050565b6000604051905081810181811067ffffffffffffffff8211171561488c5761488b614c57565b5b8060405250919050565b600067ffffffffffffffff8211156148b1576148b0614c57565b5b601f19601f8301169050602081019050919050565b6000819050602082019050919050565b600081519050919050565b600081519050919050565b600081519050919050565b6000602082019050919050565b600082825260208201905092915050565b600082825260208201905092915050565b600082825260208201905092915050565b600082825260208201905092915050565b600081905092915050565b600061495e82614ad2565b915061496983614ad2565b9250827fffffffffffffffffffffffffffffffffffffffffffffffffffffffffffffffff0382111561499e5761499d614bca565b5b828201905092915050565b60006149b482614ad2565b91506149bf83614ad2565b9250826149cf576149ce614bf9565b5b828204905092915050565b60006149e582614ad2565b91506149f083614ad2565b9250817fffffffffffffffffffffffffffffffffffffffffffffffffffffffffffffffff0483118215151615614a2957614a28614bca565b5b828202905092915050565b6000614a3f82614ad2565b9150614a4a83614ad2565b925082821015614a5d57614a5c614bca565b5b828203905092915050565b6000614a7382614ab2565b9050919050565b60008115159050919050565b60007fffffffff0000000000000000000000000000000000000000000000000000000082169050919050565b600073ffffffffffffffffffffffffffffffffffffffff82169050919050565b6000819050919050565b82818337600083830152505050565b60005b83811015614b09578082015181840152602081019050614aee565b83811115614b18576000848401525b50505050565b60006002820490506001821680614b3657607f821691505b60208210811415614b4a57614b49614c28565b5b50919050565b6000614b5b82614ad2565b91507fffffffffffffffffffffffffffffffffffffffffffffffffffffffffffffffff821415614b8e57614b8d614bca565b5b600182019050919050565b6000614ba482614ad2565b9150614baf83614ad2565b925082614bbf57614bbe614bf9565b5b828206905092915050565b7f4e487b7100000000000000000000000000000000000000000000000000000000600052601160045260246000fd5b7f4e487b7100000000000000000000000000000000000000000000000000000000600052601260045260246000fd5b7f4e487b7100000000000000000000000000000000000000000000000000000000600052602260045260246000fd5b7f4e487b7100000000000000000000000000000000000000000000000000000000600052604160045260246000fd5b6000601f19601f8301169050919050565b614ca081614a68565b8114614cab57600080fd5b50565b614cb781614a7a565b8114614cc257600080fd5b50565b614cce81614a86565b8114614cd957600080fd5b50565b614ce581614ad2565b8114614cf057600080fd5b5056fe4142434445464748494a4b4c4d4e4f505152535455565758595a6162636465666768696a6b6c6d6e6f707172737475767778797a303132333435363738392b2f426f73732061747461636b656420706c617965722e204e657720706c617965722068703a2025730a4d696e746564204e465420772f20746f6b656e496420257320616e6420636861726163746572496e6465782025730a506c6179657220772f206368617261637465722025732061626f757420746f2061747461636b2e2048617320257320485020616e64202573204144a264697066735822122055071ee416be305c068956bbda5516ec739be6aff158ebefbf27f01517b2efa064736f6c63430008000033446f6e6520696e697469616c697a696e6720424f535320257320772f2048502025732c20696d67202573",
  "linkReferences": {},
  "deployedLinkReferences": {}
}